{
  "contractName": "TodoList",
  "abi": [
    {
      "inputs": [],
      "payable": false,
      "stateMutability": "nonpayable",
      "type": "constructor"
    },
    {
      "anonymous": false,
      "inputs": [
        {
          "indexed": false,
          "internalType": "uint256",
          "name": "id",
          "type": "uint256"
        }
      ],
      "name": "CompletedTask",
      "type": "event"
    },
    {
      "anonymous": false,
      "inputs": [
        {
          "indexed": false,
          "internalType": "uint256",
          "name": "id",
          "type": "uint256"
        },
        {
          "indexed": false,
          "internalType": "string",
          "name": "text",
          "type": "string"
        },
        {
          "indexed": false,
          "internalType": "bool",
          "name": "completed",
          "type": "bool"
        }
      ],
      "name": "CreatedTask",
      "type": "event"
    },
    {
      "constant": true,
      "inputs": [],
      "name": "owner",
      "outputs": [
        {
          "internalType": "address",
          "name": "",
          "type": "address"
        }
      ],
      "payable": false,
      "stateMutability": "view",
      "type": "function"
    },
    {
      "constant": true,
      "inputs": [],
      "name": "taskCount",
      "outputs": [
        {
          "internalType": "uint256",
          "name": "",
          "type": "uint256"
        }
      ],
      "payable": false,
      "stateMutability": "view",
      "type": "function"
    },
    {
      "constant": false,
      "inputs": [
        {
          "internalType": "string",
          "name": "_text",
          "type": "string"
        }
      ],
      "name": "createTask",
      "outputs": [],
      "payable": false,
      "stateMutability": "nonpayable",
      "type": "function"
    },
    {
      "constant": true,
      "inputs": [
        {
          "internalType": "uint256",
          "name": "_id",
          "type": "uint256"
        }
      ],
      "name": "getTask",
      "outputs": [
        {
          "internalType": "uint256",
          "name": "",
          "type": "uint256"
        },
        {
          "internalType": "string",
          "name": "",
          "type": "string"
        },
        {
          "internalType": "bool",
          "name": "",
          "type": "bool"
        }
      ],
      "payable": false,
      "stateMutability": "view",
      "type": "function"
    },
    {
      "constant": false,
      "inputs": [
        {
          "internalType": "uint256",
          "name": "_id",
          "type": "uint256"
        }
      ],
      "name": "completeTask",
      "outputs": [
        {
          "internalType": "bool",
          "name": "",
          "type": "bool"
        }
      ],
      "payable": false,
      "stateMutability": "nonpayable",
      "type": "function"
    }
  ],
  "bytecode": "0x6080604052600060015534801561001557600080fd5b5061005a6040518060400160405280600c81526020017f44656661756c74207461736b000000000000000000000000000000000000000081525061009f60201b60201c565b336000806101000a81548173ffffffffffffffffffffffffffffffffffffffff021916908373ffffffffffffffffffffffffffffffffffffffff160217905550610289565b60018060008282540192505081905550604051806060016040528060015481526020018281526020016000151581525060026000600154815260200190815260200160002060008201518160000155602082015181600101908051906020019061010a9291906101e4565b5060408201518160020160006101000a81548160ff0219169083151502179055509050507f625fddd0ce1b679bccf2cb5ce08e9d846d17125d69033c0b2e3399e180899dac600154826000604051808481526020018060200183151515158152602001828103825284818151815260200191508051906020019080838360005b838110156101a557808201518184015260208101905061018a565b50505050905090810190601f1680156101d25780820380516001836020036101000a031916815260200191505b5094505050505060405180910390a150565b828054600181600116156101000203166002900490600052602060002090601f016020900481019282601f1061022557805160ff1916838001178555610253565b82800160010185558215610253579182015b82811115610252578251825591602001919060010190610237565b5b5090506102609190610264565b5090565b61028691905b8082111561028257600081600090555060010161026a565b5090565b90565b6108b8806102986000396000f3fe608060405234801561001057600080fd5b50600436106100575760003560e01c8063111002aa1461005c5780631d65e77e146101175780638da5cb5b146101d0578063b6cb58a51461021a578063e1e2955814610238575b600080fd5b6101156004803603602081101561007257600080fd5b810190808035906020019064010000000081111561008f57600080fd5b8201836020820111156100a157600080fd5b803590602001918460018302840111640100000000831117156100c357600080fd5b91908080601f016020809104026020016040519081016040528093929190818152602001838380828437600081840152601f19601f82011690508083019250505050505050919291929050505061027e565b005b6101436004803603602081101561012d57600080fd5b81019080803590602001909291905050506103c3565b604051808481526020018060200183151515158152602001828103825284818151815260200191508051906020019080838360005b83811015610193578082015181840152602081019050610178565b50505050905090810190601f1680156101c05780820380516001836020036101000a031916815260200191505b5094505050505060405180910390f35b6101d86104d8565b604051808273ffffffffffffffffffffffffffffffffffffffff1673ffffffffffffffffffffffffffffffffffffffff16815260200191505060405180910390f35b6102226104fd565b6040518082815260200191505060405180910390f35b6102646004803603602081101561024e57600080fd5b8101908080359060200190929190505050610503565b604051808215151515815260200191505060405180910390f35b6001806000828254019250508190555060405180606001604052806001548152602001828152602001600015158152506002600060015481526020019081526020016000206000820151816000015560208201518160010190805190602001906102e9929190610788565b5060408201518160020160006101000a81548160ff0219169083151502179055509050507f625fddd0ce1b679bccf2cb5ce08e9d846d17125d69033c0b2e3399e180899dac600154826000604051808481526020018060200183151515158152602001828103825284818151815260200191508051906020019080838360005b83811015610384578082015181840152602081019050610369565b50505050905090810190601f1680156103b15780820380516001836020036101000a031916815260200191505b5094505050505060405180910390a150565b6000606060006103d1610808565b6002600086815260200190815260200160002060405180606001604052908160008201548152602001600182018054600181600116156101000203166002900480601f0160208091040260200160405190810160405280929190818152602001828054600181600116156101000203166002900480156104925780601f1061046757610100808354040283529160200191610492565b820191906000526020600020905b81548152906001019060200180831161047557829003601f168201915b505050505081526020016002820160009054906101000a900460ff1615151515815250509050806000015181602001518260400151819150935093509350509193909250565b6000809054906101000a900473ffffffffffffffffffffffffffffffffffffffff1681565b60015481565b60008060009054906101000a900473ffffffffffffffffffffffffffffffffffffffff1673ffffffffffffffffffffffffffffffffffffffff163373ffffffffffffffffffffffffffffffffffffffff16146105aa576040517f08c379a00000000000000000000000000000000000000000000000000000000081526004018080602001828103825260338152602001806108516033913960400191505060405180910390fd5b6105b2610808565b6002600084815260200190815260200160002060405180606001604052908160008201548152602001600182018054600181600116156101000203166002900480601f0160208091040260200160405190810160405280929190818152602001828054600181600116156101000203166002900480156106735780601f1061064857610100808354040283529160200191610673565b820191906000526020600020905b81548152906001019060200180831161065657829003601f168201915b505050505081526020016002820160009054906101000a900460ff161515151581525050905060011515816040015115151415610718576040517f08c379a00000000000000000000000000000000000000000000000000000000081526004018080602001828103825260118152602001807f416c726561647920636f6d706c6574656400000000000000000000000000000081525060200191505060405180910390fd5b60016002600085815260200190815260200160002060020160006101000a81548160ff0219169083151502179055507fe61d4c472e86d5d96fe3fafa15e67ad875213bef73ea3504cb6bcbb284a48866836040518082815260200191505060405180910390a16001915050919050565b828054600181600116156101000203166002900490600052602060002090601f016020900481019282601f106107c957805160ff19168380011785556107f7565b828001600101855582156107f7579182015b828111156107f65782518255916020019190600101906107db565b5b509050610804919061082b565b5090565b604051806060016040528060008152602001606081526020016000151581525090565b61084d91905b80821115610849576000816000905550600101610831565b5090565b9056fe546869732066756e6374696f6e206973207265737472696374656420746f2074686520636f6e74726163742773206f776e6572a265627a7a7231582055818b116386d787ea2b666b20936d7a3cdab749911d42e77a38445f76f0d1ad64736f6c63430005100032",
  "source": "// SPDX-License-Identifier: MIT\r\npragma solidity >=0.4.22 <0.9.0;\r\n\r\ncontract TodoList {\r\n  address public owner;\r\n  uint public taskCount = 0;\r\n  mapping (uint => Task) private tasks;\r\n  event CompletedTask(uint id);\r\n  event CreatedTask(uint id, string text, bool completed);\r\n\r\n  struct Task {\r\n    uint id;\r\n    string text;\r\n    bool completed;\r\n  }\r\n\r\n  constructor() public {\r\n    createTask(\"Default task\");\r\n    owner = msg.sender;\r\n  }\r\n\r\n  modifier restricted() {\r\n    require(\r\n      msg.sender == owner,\r\n      \"This function is restricted to the contract's owner\"\r\n    );\r\n    _;\r\n  }\r\n\r\n  function createTask(string memory _text) public {\r\n    taskCount += 1;\r\n    tasks[taskCount] = Task(taskCount, _text, false);\r\n    emit CreatedTask(taskCount, _text, false);\r\n  }\r\n\r\n  function getTask(uint _id) public view returns(uint, string memory, bool) {\r\n    Task memory t = tasks[_id];\r\n    return (t.id, t.text, t.completed);\r\n  }\r\n\r\n  function completeTask(uint _id) public restricted returns(bool){\r\n    Task memory t = tasks[_id];\r\n    require(t.completed != true, \"Already completed\");\r\n    tasks[_id].completed = true;\r\n    emit CompletedTask(_id);\r\n    return true;\r\n  }\r\n}\r\n",
  "sourcePath": "D:/Coding/OpenSource/eth-solidity/truffle/contracts/TodoList.sol",
  "compiler": {
    "name": "solc",
    "version": "0.5.16+commit.9c3226ce.Emscripten.clang"
  },
  "schemaVersion": "3.3.3",
  "updatedAt": "2020-12-24T16:55:05.069Z",
  "devdoc": {
    "methods": {}
  },
  "userdoc": {
    "methods": {}
  }
}